:040000000CD0000020
:020008007FD1A6
:100018007FD194908B80730ED36EF86A030EF76EBF
:10002800000EF66EFC0E0B6EFE0E0A6E15EC01F05D
:10003800FE0EF66EFF0EF76E0900F550001804E18B
:100048000900F55001184AE03CD80400ACA2FDD7DD
:10005800B880B8A005D0B8AEFCD7B890B89EF5D790
:10006800AE50AE5000EE09F0090E026E22D80550CF
:10007800EE6EE9500B0A0BE10950020A06E009503E
:10008800050A03E00950070A02E10A500226022E77
:10009800EDD726D8026E550E07D800EE09F0EE50BF
:1000A80003D8022EFCD7D1D704009EA8FDD7AD6E89
:1000B80012000400ABB2FF009EAAFED7AE50056E38
:1000C80012008B8C948C948E0F013A9D3A9F900E5F
:1000D800AB6E260EAC6E080EB86E12008B900CD16B
:1000E8000E50F66EA96E0F50F76E10C0F8FF00EEB6
:1000F80012F00A50026E0950090803E2FF0E096E59
:10010800010CFB6A010EFA6E09441A0FD8B0FA2ADC
:10011800F96E09D044D04BD05AD064D06DD03FD0BE
:1001280076D07FD0FF00010E126E010E136E146A96
:10013800156A166A176A3F0EF86EFF0EF76EFE0E06
:10014800F66E0900F5CF18F00900F5CF19F01A6A14
:100158001B6A400E1C6E400E1D6E200EF86EF76A6C
:10016800F66A0900F5CF1EF009001E38F5101E6E5C
:100178000900F5CF1FF009001F38F5101F6E0900A0
:10018800F5CF20F009002038F510206E0900F5CFD2
:1001980021F009002138F510216E190E120009000E
:1001A800F5CFEEFF022EFBD70A50090F1200EECF53
:1001B800F5FF0D00024E03D0F6503F0BF8E10A00A0
:1001C800840EA66E49D809000252F1E141D0940E7E
:1001D800A66E42D8400EF626E86AF722F822022ECA
:1001E800F6D736D0A66AA680A8CFEEFFA92A022E97
:1001F800F9D70A50090F1200EECFA8FF040EA66E19
:100208002BD8A6B2FED7A92A022EF6D721D0C40E23
:10021800A66EEECFF5FF0C001FD80900022EF7D707
:1002280017D0006A016A0A900A52D8A40B2A09005A
:10023800F55000260900F5500122020E0A5EF7E18A
:100248000B2EF5D700C0EEFF01C0EEFF0B0E12001B
:10025800010E126E0A0E120004000C50A76E0D500B
:08026800A76EA682000012003F
:10030000CDEF01F0FFFFFFFF5A82FACF2AF0FBCFBB
:100310002BF0D9CF2CF0DACF2DF0F3CF2EF0F4CF95
:100320002FF0F2BC9DA003D09EB0BAEC72F0F2BCEC
:100330009DAA03D09EBA4BEC6EF0F2BC9DA803D0F0
:100340009EB837EC6EF0F0B6F0A002D0CBEC73F0B4
:10035000F0B8F0A202D0C8EC73F0F2B6F2A003D06D
:10036000C1EC72F0F290F2BC9DA603D09EB666EC92
:1003700024F0F2BCA0A603D0A1B601EC74F02FC00B
:10038000F4FF2EC0F3FF2DC0DAFF2CC0D9FF2BC025
:10039000FBFF2AC0FAFF5A921100A4EF42F00201BB
:1003A00008BFD9EF05F00001CA6BCB6BCC6BCD6BEE
:1003B000CE6BD369D469D569D6690201CB6B08517C
:1003C000F10B0409086FB4C2D7F006A510D12D0EA9
:1003D0001825F66EF76AF80EF722F86A000EF82272
:1003E0000800F5CFA8F075510001A825A96F000EEF
:1003F000A8BFFF0E020176210001AA6FAB6BAC6BA8
:100400000C0ED890A937AA37AB37AC37E82EF9D7FE
:10041000A9C064F0AAC065F0ABC066F0ACC067F0DC
:100420007D0E686F696B6A6B6B6B45EC59F064C04D
:1004300071F065C072F066C073F067C074F00201BD
:10044000BC5147EC67F02D0E02011D25F66EF76AD0
:10045000F80EF722F86A000EF8220800F5CFA8F08F
:1004600077510001A825A96F000EA8BFFF0E020159
:1004700078210001AA6FAB6BAC6B0C0ED890A9373A
:10048000AA37AB37AC37E82EF9D7A9C064F0AAC0B9
:1004900065F0ABC066F0ACC067F07D0E686F696B4D
:1004A0006A6B6B6B45EC59F064C071F065C072F01B
:1004B00066C073F067C074F00201BD5147EC67F08D
:1004C0000201BC51C9EC55F00201BD51C9EC55F017
:1004D000A6C0A8F0A7C0A9F00201B5510001AA6FFB
:1004E0000201B6510001AB6FAC6BAD6BD60EAA0327
:1004F000F3CFAEF0F4CFAFF0B06BB16BAB03F35012
:10050000AF27F450B023000EB1230B0EAA03F35013
:10051000AF27F450B023000EB123D60EAC03F35036
:10052000B027F450B1230B0EAB03F350B027F450B7
:10053000B123000EAA03F350B027F450B123D60E16
:10054000AD03F350B1270B0EAC03F350B127000EEF
:10055000AB03F350B127000EAA03F350B127FF0EEF
:10056000AE25B26FFF0EAF21B36FFF0EB021B46F97
:10057000FF0EB121B56FB251A803F3CFB6F0F4CF9F
:10058000B7F0B86BB96BA903F350B727F450B82391
:10059000000EB923B351A803F350B727F450B82382
:1005A000000EB923B351A903F350B827F450B9236F
:1005B000B451A803F350B827F450B923B451A90398
:1005C000F350B927B551A803F350B927D7510E0DF1
:1005D000080EF324D96E050EF420DA6EB6C0DEFFE5
:1005E000B7C0DEFFB8C0DEFFB9C0DEFF1AD12D0EE6
:1005F0001825F66EF76AF80EF722F86A000EF82250
:100600000800F5CFA8F071510001A825A96F000ED0
:10061000A8BFFF0E020172210001AA6FAB6BAC6B89
:100620000C0ED890A937AA37AB37AC37E82EF9D7DC
:10063000A9C064F0AAC065F0ABC066F0ACC067F0BA
:100640007D0E686F696B6A6B6B6B45EC59F064C02B
:1006500071F065C072F066C073F067C074F002019B
:10066000BE5147EC67F02D0E02011D25F66EF76AAC
:10067000F80EF722F86A000EF8220800F5CFA8F06D
:1006800073510001A825A96F000EA8BFFF0E02013B
:1006900074210001AA6FAB6BAC6B0C0ED890A9371C
:1006A000AA37AB37AC37E82EF9D7A9C064F0AAC097
:1006B00065F0ABC066F0ACC067F07D0E686F696B2B
:1006C0006A6B6B6B45EC59F064C071F065C072F0F9
:1006D00066C073F067C074F00201BF5147EC67F069
:1006E0000201BE51C9EC55F00201BF51C9EC55F0F1
:1006F000A6C0A8F0A7C0A9F022EEB5F0DECFAAF000
:10070000DDCFABF0D7510E0D060EF324D96E050EDA
:10071000F420DA6EDECFACF0DDCFADF0AC51AE6FD1
:10072000AD51AF6FB06BB16BAE29B26F000EAF21A0
:10073000B36F000EB021B46F000EB121B56FB2518E
:10074000AA03F3CFB6F0F4CFB7F0B86BB96BAB0335
:10075000F350B727F450B823000EB923B351AA03BE
:10076000F350B727F450B823000EB923B351AB03AD
:10077000F350B827F450B923B451AA03F350B82763
:10078000F450B923B451AB03F350B927B551AA03C0
:10079000F350B927FF0EB625BA6FFF0EB721BB6F16
:1007A000FF0EB821BC6FFF0EB921BD6FBA51A8036F
:1007B000F3CFBEF0F4CFBFF0C06BC16BA903F35011
:1007C000BF27F450C023000EC123BB51A803F35030
:1007D000BF27F450C023000EC123BB51A903F3501F
:1007E000C027F450C123BC51A803F350C027F450D4
:1007F000C123BC51A903F350C127BD51A803F35035
:10080000C127D7510E0D080EF324D96E050EF42022
:10081000DA6EBEC0DEFFBFC0DEFFC0C0DEFFC1C0FB
:10082000DEFF0201C351E8EC6FF0000901E1C8D01E
:100830000201C3518DEC70F00201C351C6EC67F0A8
:100840008DC0CFF08EC0D0F08FC0D1F090C0D2F06C
:10085000D25107E11F0ECF5DAC0ED059DF0ED1593A
:100860004AE3CFC0A8F0D0C0A9F0D1C0AAF0D2C04E
:10087000ABF00D0E05D0D890AB33AA33A933A83313
:10088000E82EF9D77D0EA803F3CFACF0F4CFADF08E
:10089000AE6BAF6BA903F350AD27F450AE23000E3F
:1008A000AF23A803F350AD27F450AE23000EAF23BF
:1008B0007D0EAA03F350AE27F450AF23000EA90318
:1008C000F350AE27F450AF23000EA803F350AE2729
:1008D000F450AF237D0EAB03F350AF27000EAA03F5
:1008E000F350AF27000EA903F350AF27000EA80363
:1008F000F350AF2749D0CFC0A8F0D0C0A9F0D1C0E5
:10090000AAF0D2C0ABF07D0EA803F3CFACF0F4CFC9
:10091000ADF0AE6BAF6BA903F350AD27F450AE232F
:10092000000EAF23A803F350AD27F450AE23000E02
:10093000AF237D0EAA03F350AE27F450AF23000E71
:10094000A903F350AE27F450AF23000EA803F350D1
:10095000AE27F450AF237D0EAB03F350AF27000E4C
:10096000AA03F350AF27000EA903F350AF27000EE0
:10097000A803F350AF270D0E05D0D890AF33AE3398
:10098000AD33AC33E82EF9D7ACC0C2F0ADC0C3F084
:10099000AEC0C4F0AFC0C5F0C2510201A25D0001FB
:1009A000CB6FC3510201A3590001CC6FC4510201A6
:1009B000A4590001CD6FC5510201A5590001CE6FA8
:1009C000D76BD7510E0D040EF324D96E050EF4200B
:1009D000DA6EDE0401E087D0D7510E0D080EF32445
:1009E000D96E050EF420DA6EDE50DE10DE10DE1059
:1009F0007AE0D7510E0D080EF324D96E050EF420BF
:100A0000DA6EDE50CB5DDE50CC59DE50CD59DE5073
:100A1000CE592DE2D7510E0D080EF324D96E050ED6
:100A2000F420DA6EDECFA8F0DECFA9F0DECFAAF098
:100A3000DECFABF0CB51A85DAC6FCC51A959AD6FF7
:100A4000CD51AA59AE6FCE51AB59AF6FD7510E0DE4
:100A5000080EF324D96E050EF420DA6EACC0DEFF6A
:100A6000ADC0DEFFAEC0DEFFAFC0DEFF0CD0D751A1
:100A70000E0D080EF324D96E050EF420DA6EDE6A30
:100A8000DE6ADE6ADD6AD7510E0D080EF324D96ED8
:100A9000050EF420DA6EDE50D35DDE50D459DE5000
:100AA000D559DE50D6591FE3D7510E0D080EF32449
:100AB000D96E050EF420DA6EDE50DE10DE10DE1088
:100AC00012E0D7510E0D080EF324D96E050EF42056
:100AD000DA6EDECFD3F0DECFD4F0DECFD5F0DECFCE
:100AE000D6F0010ECA6FD72B0F0ED7656AD7CA058D
:100AF000D8A41200D3C0A2F2D4C0A3F2D5C0A4F2ED
:100B0000D6C0A5F2D65106E1D329FF0ED4590F0E57
:100B1000D55918E3D3C064F0D4C065F0D5C066F0F1
:100B2000D6C067F07D0E686F696B6A6B6B6B45ECC6
:100B300059F00C0ED8906437653766376737E82E62
:100B4000F9D71FD0D3C0A8F0D4C0A9F0D5C0AAF05F
:100B5000D6C0ABF00C0ED890A837A937AA37AB3760
:100B6000E82EF9D7A8C064F0A9C065F0AAC066F065
:100B7000ABC067F07D0E686F696B6A6B6B6B45ECA1
:100B800059F064C0C6F065C0C7F066C0C8F067C061
:100B9000C9F0C6C071F0C7C072F0C8C073F0C9C058
:100BA00074F00201C35147EC67F00201C351C9EF71
:100BB00055F0C2EC73F00001A86FA8A90FD0946B98
:100BC000956B966B020E976F0500FA6E0101B3519B
:100BD000FD6EB451FE6EFF6AFA5012000101B3516E
:100BE000B411D8B412000001946B956B966B030E90
:100BF000976F0500FA6E0101B351FD6EB451FE6EA0
:100C0000FF6AFA501200BCEC73F0020108BF68D30F
:100C100066C1D9FF67C1DAFFDF500101736F733915
:100C2000E832070BE80601E0BAD002011E5101E0EC
:100C3000B6D001016805786F1FD0685166250001A4
:100C4000ED6F000E010167210001EE6F0101785187
:100C50000001ED5D906FEE51D8A0EE05916F430E4F
:100C6000926F020E936F23EC6EF0100E0101786507
:100C700002D0785F01D0786B7851DFE1430E00013C
:100C8000DA6F020EDB6F66C1DCF067C1DDF00101D7
:100C90006851FC0F0001DE6F3DEC62F0DAC074F1C8
:100CA000DBC075F1DCC076F1DDC077F166C16EF0B6
:100CB00067C16FF068C170F005EC67F06EC06AF153
:100CC0006FC06BF170C06CF171C06DF101017451B6
:100CD0006A1909E175516B1906E176516C1903E146
:100CE00077516D1911E002010831070B050A02E185
:100CF0002DEF6FF00831070B030AD8A41200CB5177
:100D0000D8B412002DEF6FF002010831070B030A6F
:100D100003E1BD518DEC70F066C17AF167C17BF1E2
:100D2000010120EE07F07A51D9267B51DA22DECF7D
:100D30001FF2DECF20F2DECF21F2DECF22F220EE54
:100D40000CF07A51D9267B51DA22DF500F0BE4ECFC
:100D500063F0010120EE0BF07A51D9267B51DA22A3
:100D6000DF38070B0001646F010120EE0BF07A51B0
:100D7000D9267B51DA22DF500F0B2FEC71F07AC1AC
:100D800070F07BC171F0010168514EEC28F07AC11E
:100D9000A4F07BC1A5F097EC57F003EF3FF0010101
:100DA0007339E832070B030A07E07339E832070B9F
:100DB000050A02E06CEF61F00201816B66C17CF113
:100DC00067C17DF1010120EE01F07C51D9267D51F2
:100DD000DA2202011F51DE1809E12051DE1806E176
:100DE0002151DE1803E12251DE1802E06CEF61F0C0
:100DF000010120EE06F07C51D9267D51DA22DECFAA
:100E0000EDF0DDCFEEF0EDC06EF0EEC06FF0000162
:100E1000706B716B01016851FC0F0001726F490E1C
:100E2000736F010EEAEC53F0490E646F0B0E656FA1
:100E3000C90E666F030E676F696B100E686F15EC55
:100E400061F0590E646F0B0E656F66C166F067C185
:100E500067F0FC0E010168250001686F696BFF0EE9
:100E6000692315EC61F0230ECC6F020ECD6FC90E15
:100E7000CE6F030ECF6F490ED06F0B0ED16F0101F5
:100E800068510C0F0001D26F1DEC17F0740E646FE7
:100E9000010E656FC90E666F030E676F696B040EF6
:100EA000686F15EC61F066C16EF067C16FF068C1E4
:100EB00070F005EC67F06EC06AF16FC06BF170C046
:100EC0006CF171C06DF101016A5174198FE16B51C0
:100ED00075198CE16C51761989E16D51771902E031
:100EE0006CEF61F020EE06F07C51D9267D51DA22BC
:100EF00002011051DE5C1151DE5846E3010120EE83
:100F000006F07C51D9267D51DA22DECFEDF0DDCF1F
:100F1000EEF0020110510001ED5F020111510001DC
:100F2000EE5BED510201795D0001EE5102017A594B
:100F30001FE20691F10E08170101B351B41114E03C
:100F40000201069B000E0001946B956B966B976BEC
:100F500001D80AD00500FA6E0101B351FD6EB451FB
:100F6000FE6EFF6AFA501200020109910A81120016
:100F7000010120EE06F07C51D9267D51DA22DECF28
:100F800010F2DDCF11F221D0010120EE06F07C51EC
:100F9000D9267D51DA22DE50DE1002E06CEF61F0DE
:100FA0000201102902E11129D8A46CEF61F00101BE
:100FB00020EE06F07C51D9267D51DA22DECF10F2E8
:100FC000DDCF11F20201124B132B0201102906E1B1
:100FD000112904E1122902E11329C8E00831070BA5
:100FE000030A03E1BF518DEC70F0010E0201B26FF4
:100FF0007CC164F07DC165F08BEC5DF0010120EEF9
:1010000005F07C51D9267D51DA22DF500F0B1BE011
:10101000080E7C2500017A6F000E01017D21000180
:101020007B6F010120EE05F07C51D9267D51DA223B
:10103000DF500F0B00017C6F5EEC26F07AC066F18A
:101040007BC067F104D0080E6627000E67230101FC
:1010500068510001ED6FEE6B010120EE05F07C514F
:10106000D9267D51DA22DF500F0B0001EF6FF06BB4
:101070000C0EEF27000EF023ED51EF1904E1EE51B5
:10108000F01901E192D066C1D9FF67C1DAFFDF50E4
:101090000101696F664B672B20EE05F07C51D92664
:1010A0007D51DA22DF500F0B0001ED6FED51010190
:1010B000685DF40F796F20EE05F07C51D9267D51E3
:1010C000DA22DF500F0B190F6E6F695125E066C1F0
:1010D000A4F067C1A5F079050001A66F010EA76F06
:1010E00010C2A8F011C2A9F012C2AAF013C2ABF04C
:1010F000330EAC6F020EAD6F6EC1AEF0490EAF6F26
:101100000B0EB06F73EC32F0FF0E01016625706FAD
:10111000FF0E6721716F4DD068510001ED6FEE6BCE
:10112000010120EE05F07C51D9267D51DA22DF50F5
:101130000F0B0001EF6FF06B0D0EEF27000EF02389
:10114000ED51EF5DF051800AF16FEE51800AF159D7
:101150002CE266C1A4F067C1A5F001017905000188
:10116000A66F010EA76F10C2A8F011C2A9F012C29B
:10117000AAF013C2ABF0230EAC6F020EAD6F6EC1BE
:10118000AEF0490EAF6F0B0EB06F73EC32F066C16C
:101190007AF067C17BF00101790500017C6F5EEC9C
:1011A00026F07AC066F17BC067F10101796B706B44
:1011B000716B010E0201B26FAA6BAB6BC86B069923
:1011C000098106A14ED0010120EE05F07C51D926FF
:1011D0007D51DA22DFAA03EF5BF002010691010ED6
:1011E00001016F6FF10E020108170101B351B41133
:1011F00016E00201069B70C194F071C195F079C1AF
:1012000096F06FC197F001D80AD00500FA6E01017F
:10121000B351FD6EB451FE6EFF6AFA501200020126
:10122000099108B906BB120006B302D006A7120046
:10123000010E0001796F720E7A6F010E7B6F020151
:10124000C75159EC41F0000902E093EF35F0000E70
:10125000E66FE76FE86FE96F17EC4BF00201069756
:101260001200010E01016F6FF10E0201081701015A
:10127000B351B41116E00201069B70C194F071C124
:1012800095F079C196F06FC197F001D80AD00500AA
:10129000FA6E0101B351FD6EB451FE6EFF6AFA5051
:1012A0001200020108B906BB120006B302D006A75D
:1012B0001200010E0001796F720E7A6F010E7B6FC2
:1012C0000201C75159EC41F0000902E093EF35F0FB
:1012D000000EE66FE76FE86FE96F17EC4BF0BED7D3
:1012E0000101B351B411D8B41200C2EC73F0000183
:1012F000ED6FEDB712D066C194F067C195F068C18B
:1013000096F0030E976F0500FA6E0101B351FD6E62
:10131000B451FE6EFF6AFA50120066C194F067C1C4
:1013200095F068C196F0020E976F0500FA6E010104
:10133000B351FD6EB451FE6EFF6AFA5012007E6B1F
:101340007F6B766B776B010E0001656F890E646FA2
:101350006669A7EC67F0010E0001656F8A0E646F85
:101360006669A7EC67F0B0EC73F001017D6F7D5109
:101370007627000E77230001656B646B7DC166F0F4
:10138000A7EC67F001017E4B7F2B790E0001646FA3
:10139000010E656F7D0E666F010E676F51EC6DF08B
:1013A00001017D517627000E77237EC164F07FC155
:1013B00065F07DC166F0A7EC67F001017E4B7F2BE5
:1013C000806B790E8025D96EDA6A010EDA22DF5041
:1013D0007627000E77237EC164F07FC165F0790E19
:1013E0008025D96EDA6A010EDA22DF500001666FBD
:1013F000A7EC67F001017E4B7F2B802B030E8065ED
:10140000E0D7C1C17DF17D517627000E77237EC1E3
:1014100064F07FC165F07DC166F0A7EC67F0010163
:101420007E4B7F2B47EC72F064C079F165C07AF196
:1014300066C07BF167C07CF1806B790E8025D96E28
:10144000DA6A010EDA22DF507627000E77237EC19A
:1014500064F07FC165F0790E8025D96EDA6A010EDD
:10146000DA22DF500001666FA7EC67F001017E4BC6
:101470007F2B802B030E8065E0D750EC72F064C0A8
:1014800079F165C07AF166C07BF167C07CF1806B51
:10149000790E8025D96EDA6A010EDA22DF507627BE
:1014A000000E77237EC164F07FC165F0790E802540
:1014B000D96EDA6A010EDA22DF500001666FA7ECFE
:1014C00067F001017E4B7F2B802B030E8065E0D7F8
:1014D000660E00016E6F010E6F6F08EC71F0010176
:1014E000806B660E8025D96EDA6A010EDA22DF5033
:1014F0007627000E77237EC164F07FC165F0660E0B
:101500008025D96EDA6A010EDA22DF500001666F9B
:10151000A7EC67F001017E4B7F2B802B070E8065C7
:10152000E0D7660E00016E6F010E6F6F15EC71F063
:101530000101806B660E8025D96EDA6A010EDA220F
:10154000DF507627000E77237EC164F07FC165F0FF
:10155000660E8025D96EDA6A010EDA22DF500001AC
:10156000666FA7EC67F001017E4B7F2B802B070E87
:101570008065E0D7660E00016E6F010E6F6FFBECA9
:1015800070F00101806B660E8025D96EDA6A010E5B
:10159000DA22DF507627000E77237EC164F07FC108
:1015A00065F0660E8025D96EDA6A010EDA22DF5008
:1015B0000001666FA7EC67F001017E4B7F2B802B4B
:1015C0000F0E8065E0D7660E00016E6F010E6F6F23
:1015D000E1EC70F00101806B660E8025D96EDA6A4D
:1015E000010EDA22DF507627000E77237EC164F0E9
:1015F0007FC165F0660E8025D96EDA6A010EDA22A7
:10160000DF500001666FA7EC67F001017E4B7F2B76
:10161000802B0F0E8065E0D7660E00016E6F010E05
:101620006F6FEEEC70F00101806B660E8025D96E55
:10163000DA6A010EDA22DF507627000E77237EC1A8
:1016400064F07FC165F0660E8025D96EDA6A010EFE
:10165000DA22DF500001666FA7EC67F001017E4BD4
:101660007F2B802B0F0E8065E0D759EC72F064C0A1
:1016700079F165C07AF166C07BF167C07CF1806B5F
:10168000790E8025D96EDA6A010EDA22DF507627CC
:10169000000E77237EC164F07FC165F0790E80254E
:1016A000D96EDA6A010EDA22DF500001666FA7EC0C
:1016B00067F001017E4B7F2B802B030E8065E0D706
:1016C000786B020E786501D055D07851FAEC6CF049
:1016D00001017D6F7D517627000E77237EC164F076
:1016E0007FC165F07DC166F0A7EC67F001017E4B1C
:1016F0007F2B7851E4EC6CF001017D6F7D517627F2
:10170000000E77237EC164F07FC165F07DC166F075
:10171000A7EC67F001017E4B7F2B7851F5EC69F067
:1017200067C079F168C07AF101017B6B7C6B806BDB
:10173000790E8025D96EDA6A010EDA22DF5076271B
:10174000000E77237EC164F07FC165F0790E80259D
:10175000D96EDA6A010EDA22DF500001666FA7EC5B
:1017600067F001017E4B7F2B802B030E8065E0D755
:10177000782BA7D7786B1C0E786501D086D078516E
:10178000030FABEC6EF064C079F165C07AF166C00E
:101790007BF167C07CF10101806B790E8025D96EE9
:1017A000DA6A010EDA22DF507627000E77237EC137
:1017B00064F07FC165F0790E8025D96EDA6A010E7A
:1017C000DA22DF500001666FA7EC67F001017E4B63
:1017D0007F2B802B030E8065E0D77851030FF5EC4B
:1017E00069F067C079F168C07AF101017B6B7C6BAD
:1017F000806B790E8025D96EDA6A010EDA22DF500D
:101800007627000E77237EC164F07FC165F0790EE4
:101810008025D96EDA6A010EDA22DF500001666F88
:10182000A7EC67F001017E4B7F2B802B030E8065B8
:10183000E0D77851030FE4EC6CF001017D6F7D512E
:101840007627000E77237EC164F07FC165F07DC1ED
:1018500066F0A7EC67F001017E4B7F2B7851030FF8
:10186000FAEC6CF001017D6F7D517627000E772335
:101870007EC164F07FC165F07DC166F0A7EC67F0C2
:1018800001017E4B7F2B782B76D7B3EC73F00101EF
:101890007D6F7D517627000E77237EC164F07FC176
:1018A00065F07DC166F0A7EC67F001017E4B7F2BF0
:1018B00072EC73F001017D6F7D517627000E772366
:1018C0007EC164F07FC165F07DC166F0A7EC67F072
:1018D00001017E4B7F2B762904E1772902E1766BAB
:1018E000776B7EC164F07FC165F076C166F0A7ECCE
:1018F00067F001017E4B7F2B7EC164F07FC165F0F4
:1019000077C166F0A7EC67F001017E4B7F2B0001E9
:1019100020EE06F0EF51D926F051DA22D5C2DEFFD3
:10192000D6C2DEFFDD6A1200446A456A0001656BBB
:10193000646B49EC71F00101C46F444A452AC4C18B
:10194000BDF1BE6BC451C5EC31F044C064F045C07C
:1019500065F049EC71F00101C46F444A452AC45155
:10196000BD27000EBE23B96BBA6BBA511CE1040E41
:10197000B95D19E2B951300FD96EDA6A44C064F02A
:1019800045C065F049EC71F0DF6E444A452A01011B
:10199000B951300FD96EDA6ADF50BD27000EBE2371
:1019A000B94BBA2BE2D730C069F031C06AF032C00F
:1019B0006BF033C06CF0C4C16DF02BEC65F044C02B
:1019C00064F045C065F049EC71F00101C46F444A10
:1019D000452AC451BD27000EBE23C45132EC73F01A
:1019E000C4C1A8F00101B96BBA6BBA511CE1040E75
:1019F000B95D19E2B951300FD96EDA6A44C064F0AA
:101A000045C065F049EC71F0DF6E444A452A01019A
:101A1000B951300FD96EDA6ADF50BD27000EBE23F0
:101A2000B94BBA2BE2D730C064F031C065F032C098
:101A300066F033C067F074EC72F00101B96BBA6BF9
:101A4000BA511CE1040EB95D19E2B951300FD96EDB
:101A5000DA6A44C064F045C065F049EC71F0DF6EAD
:101A6000444A452A0101B951300FD96EDA6ADF5074
:101A7000BD27000EBE23B94BBA2BE2D730C064F0AD
:101A800031C065F032C066F033C067F07DEC72F0B3
:101A90000101B96BBA6BBA5120E1080EB95D1DE2C4
:101AA000D90EB925D96E030EBA21DA6E44C064F09E
:101AB00045C065F049EC71F0DF6E444A452AD90E05
:101AC0000101B925D96E030EBA21DA6EDF50BD27A8
:101AD000000EBE23B94BBA2BDED70001A8A106D059
:101AE000D90E6E6F030E6F6FA5EC6DF00101B96B2F
:101AF000BA6BBA5120E1080EB95D1DE2D90EB925C5
:101B0000D96E030EBA21DA6E44C064F045C065F0A8
:101B100049EC71F0DF6E444A452AD90E0101B9251E
:101B2000D96E030EBA21DA6EDF50BD27000EBE2338
:101B3000B94BBA2BDED70001A8A306D0D90E6E6F21
:101B4000030E6F6FE4EC6DF00101B96BBA6BBA5123
:101B500020E1100EB95D1DE2D90EB925D96E030E34
:101B6000BA21DA6E44C064F045C065F049EC71F00A
:101B7000DF6E444A452AD90E0101B925D96E030EFC
:101B8000BA21DA6EDF50BD27000EBE23B94BBA2B47
:101B9000DED70001A8A506D0D90E6E6F030E6F6FB9
:101BA000CFEC6DF00101B96BBA6BBA5120E1100EA8
:101BB000B95D1DE2D90EB925D96E030EBA21DA6ED0
:101BC00044C064F045C065F049EC71F0DF6E444AF2
:101BD000452AD90E0101B925D96E030EBA21DA6E54
:101BE000DF50BD27000EBE23B94BBA2BDED7000154
:101BF000A8A906D0D90E6E6F030E6F6F90EC6DF032
:101C00000101B96BBA6BBA5120E1100EB95D1DE24A
:101C1000D90EB925D96E030EBA21DA6E44C064F02C
:101C200045C065F049EC71F0DF6E444A452AD90E93
:101C30000101B925D96E030EBA21DA6EDF50BD2736
:101C4000000EBE23B94BBA2BDED70001A8AB06D0DD
:101C5000D90E6E6F030E6F6FBAEC6DF0306A316A99
:101C6000326A336A0101B96BBA6BBA511CE1040ED6
:101C7000B95D19E2B951300FD96EDA6A44C064F027
:101C800045C065F049EC71F0DF6E444A452A010118
:101C9000B951300FD96EDA6ADF50BD27000EBE236E
:101CA000B94BBA2BE2D70001A8A70AD030C064F024
:101CB00031C065F032C066F033C067F092EC71F06D
:101CC000526A020E526401D058D044C064F045C03C
:101CD00065F049EC71F00101C46F444A452AC451D2
:101CE000BD27000EBE23C451010ED8B4000E000162
:101CF000686F525026EC67F044C064F045C065F050
:101D000049EC71F00101C46F444A452AC451BD2712
:101D1000000EBE23C4C16AF052501AEC6BF0306A58
:101D2000316A326A336A0101B96BBA6BBA511CE18C
:101D3000040EB95D19E2B951300FD96EDA6A44C0A8
:101D400064F045C065F049EC71F0DF6E444A452A05
:101D50000101B951300FD96EDA6ADF50BD27000E8C
:101D6000BE23B94BBA2BE2D730C067F031C068F060
:101D7000525026EC6DF0522AA4D7526A1C0E5264BF
:101D800001D088D0306A316A326A336A0101B96B96
:101D9000BA6BBA511CE1040EB95D19E2B951300FAA
:101DA000D96EDA6A44C064F045C065F049EC71F060
:101DB000DF6E444A452A0101B951300FD96EDA6A03
:101DC000DF50BD27000EBE23B94BBA2BE2D730C07F
:101DD00069F031C06AF032C06BF033C06CF0525021
:101DE000030FFCEC65F0306A316A326A336A010134
:101DF000B96BBA6BBA511CE1040EB95D19E2B95165
:101E0000300FD96EDA6A44C064F045C065F049EC21
:101E100071F0DF6E444A452A0101B951300FD96E85
:101E2000DA6ADF50BD27000EBE23B94BBA2BE2D7CA
:101E300030C067F031C068F05250030F26EC6DF0EF
:101E400044C064F045C065F049EC71F00101C46F15
:101E5000444A452AC451BD27000EBE23C4C16AF0BE
:101E60005250030F1AEC6BF044C064F045C065F0AB
:101E700049EC71F00101C46F444A452AC451BD27A1
:101E8000000EBE23C4C168F05250030F26EC67F069
:101E9000522A74D744C064F045C065F049EC71F033
:101EA0000101C46F444A452AC451BD27000EBE2318
:101EB000C45143EC6CF044C064F045C065F049EC9B
:101EC00071F00101C46F444A452AC451BD27000E78
:101ED000BE23C4513CEC71F00101BD2904E1BE29CF
:101EE00002E1BD6BBE6BBDC1A6F0BEC1A7F0120082
:101EF000DDC169F0000E6A6F7CEC43F0C5C171F082
:101F0000C6C172F0C7C173F0C8C174F036EC42F0BC
:101F10000101E051F9EC45F00101DD0501E0A4D13A
:101F2000D3C166F0390E52EC70F0E7C17FF0010EBC
:101F300000017F170101D890E6350001806F010193
:101F4000DF39F00B000180117F11666F1D0E52EC1E
:101F500070F07EC07FF0030E00017F17E1C180F0BA
:101F6000010E8017D8908037D89080370101DE3974
:101F7000F00B000180117F11666F1E0E52EC70F0A5
:101F80000101E351E41160E0E3C182F0E4C183F0B8
:101F90000001846B856B42D082C064F083C065F021
:101FA00084C066F085C067F07D0E0001686F696BC4
:101FB0006A6B6B6B50EC56F022D082C064F083C029
:101FC00065F084C066F085C067F0FA0E0001686FA6
:101FD000696B6A6B6B6B50EC56F011D082C064F089
:101FE00083C065F084C066F085C067F0F40E000120
:101FF000686F010E696F6A6B6B6B50EC56F064C0D2
:1020000082F065C083F066C084F067C085F00FD0B1
:102010000001826B836B846B856B09D00101DF51FA
:10202000070ABAE00F0AC9E0010AD8E0F1D70101B6
:10203000DE2900017F6F05D0D89085338433833348
:1020400082337F2FF9D705D00001826B836B846BBD
:10205000856B82C066F0240E52EC70F07DC066F095
:102060001F0E52EC70F0260ED1EC6EF0866F0C0E47
:102070000101DE1906E1070EDF1909E0080EDF197C
:1020800006E00B0EDE1906E1070EDF1903E1000181
:10209000868702D000018697868586C066F0260E68
:1020A00052EC70F0310ED1EC6EF0866FF80E8617A0
:1020B000030E861386C066F0310E52EC70F00A0EE5
:1020C0000001666F370E52EC70F0120E0101F61926
:1020D00029E1070EDF1903E0080EDF1915E1310EC3
:1020E000D1EC6EF0866F869F86C066F0310E52ECA2
:1020F00070F0400E0001666F2F0E52EC70F0000180
:10210000666B300E52EC70F0090E0101DF190AE126
:10211000310ED1EC6EF0866F868F86C066F0310E80
:1021200052EC70F0330ED1EC6EF0866F869DE5C1F7
:102130007FF0010E7F17060E806FD8907F37802FBB
:10214000FCD77F51861386C066F0330E52EC70F0D8
:102150000101D2510001666F200E52EC70F0D1C126
:1021600066F0210E52EC70F00001666B0D0E52EC21
:1021700070F00001666B0E0E52EC70F00001666BA1
:102180000F0E52EC70F0120E0101F61968E1090E03
:10219000DF191EE1800EC55D130EC659610EC759C9
:1021A000330EC85915E3C505F70EC659CB0EC759EE
:1021B0003C0EC8590DE2020E0001666F360E52EC5D
:1021C00070F0640E0001666F3A0E52EC70F028D089
:1021D000090EDF191FE1800EC55D1A0EC659700E7B
:1021E000C759180EC85916E3410EC55DDD0EC65914
:1021F0004A0EC7591F0EC8590DE2020E0001666F44
:10220000360E52EC70F07F0E0001666F3A0E52EC03
:1022100070F006D0030E0001666F360E52EC70F0BF
:10222000090E0101DF190FE1E5050DE1650E000161
:10223000666F3A0E52EC70F0190E0001666F3B0E9D
:1022400052EC70F00CD0650E0001666F3A0E52EC45
:1022500070F01D0E0001666F3B0E52EC70F0000135
:102260006669120E52EF70F0C9C171F0CAC172F006
:10227000CBC173F0CCC174F038EC5CF0CDC171F01F
:10228000CEC172F0CFC173F0D0C174F09BEC5CF0A2
:102290000101D2510001666F250E52EC70F0D1C1E0
:1022A00066F0260E52EC70F00A0ED1EC6EF0866FDE
:1022B0009F0E86170101F839E846E00B00018613EE
:1022C00086C066F00A0E52EC70F0C80E0001866FF0
:1022D0000101E15102E00001868986C066F0300EFE
:1022E00052EC70F00001816B0ED0D40E8125D96EB6
:1022F000DA6A010EDA22DF50666F8151280F52EC44
:1023000070F00001812B0101DC510001815DEDE3E2
:102310000101DC5108E0DC0510090001666F270EA1
:1023200052EC70F005D00001666B270E52EC70F095
:10233000000166693E0E52EC70F0000166693F0EC6
:1023400052EF70F0D8D10001A269A369A469A56910
:10235000E0D106A598D0BC51C6EC67F0905107E1DA
:102360001F0E8D5DAC0E8E59DF0E8F5946E30201B4
:10237000BC51C6EC67F00D0E05D0D89090338F336A
:102380008E338D33E82EF9D77D0E8D03F3CF9AF07F
:10239000F4CF9BF09C6B9D6B8E03F3509B27F45006
:1023A0009C23000E9D238D03F3509B27F4509C2308
:1023B000000E9D237D0E8F03F3509C27F4509D2328
:1023C000000E8E03F3509C27F4509D23000E8D03C6
:1023D000F3509C27F4509D237D0E9003F3509D27CE
:1023E000000E8F03F3509D27000E8E03F3509D27A0
:1023F000000E8D03F3509D27A7D00201BC51C6ECFF
:1024000067F07D0E8D03F3CF9AF0F4CF9BF09C6BB9
:102410009D6B8E03F3509B27F4509C23000E9D234D
:102420008D03F3509B27F4509C23000E9D237D0EBB
:102430008F03F3509C27F4509D23000E8E03F3501E
:102440009C27F4509D23000E8D03F3509C27F450DD
:102450009D237D0E9003F3509D27000E8F03F350B4
:102460009D27000E8E03F3509D27000E8D03F35021
:102470009D270D0E05D0D8909D339C339B339A3306
:10248000E82EF9D761D008A144D1BE51C6EC67F05F
:10249000905107E11F0E8D5DAC0E8E59DF0E8F59E6
:1024A0000EE30201BE51C6EC67F00D0E05D0D890C8
:1024B00090338F338E338D33E82EF9D765D70201F1
:1024C000BE51C6EC67F07D0E8D03F3CF9AF0F4CFCA
:1024D0009BF09C6B9D6B8E03F3509B27F4509C23C9
:1024E000000E9D238D03F3509B27F4509C23000E78
:1024F0009D237D0E8F03F3509C27F4509D23000EE7
:102500008E03F3509C27F4509D23000E8D03F3504F
:102510009C27F4509D237D0E9003F3509D27000EC1
:102520008F03F3509D27000E8E03F3509D27000E5E
:102530008D03F3509D270D0E05D0D8909D339C330D
:102540009B339A33E82EF9D79AC0A2F09BC0A3F030
:102550009CC0A4F09DC0A5F0DCD006A504D0BD5160
:10256000C6EC67F005D008A10BD0BF51C6EC67F0F0
:102570008DC0A2F08EC0A3F08FC0A4F090C0A5F0D3
:102580000001A55107E11F0EA25DAC0EA359DF0E9D
:10259000A4594AE3A2C09AF0A3C09BF0A4C09CF047
:1025A000A5C09DF00D0E05D0D8909D339C339B3374
:1025B0009A33E82EF9D77D0E9A03F3CF9EF0F4CF2D
:1025C0009FF0A06BA16B9B03F3509F27F450A023B7
:1025D000000EA1239A03F3509F27F450A023000E6E
:1025E000A1237D0E9C03F350A027F450A123000EDD
:1025F0009B03F350A027F450A123000E9A03F3503D
:10260000A027F450A1237D0E9D03F350A127000EB7
:102610009C03F350A127000E9B03F350A127000E4B
:102620009A03F350A12749D0A2C09AF0A3C09BF00F
:10263000A4C09CF0A5C09DF07D0E9A03F3CF9EF040
:10264000F4CF9FF0A06BA16B9B03F3509F27F45036
:10265000A023000EA1239A03F3509F27F450A02338
:10266000000EA1237D0E9C03F350A027F450A1235C
:10267000000E9B03F350A027F450A123000E9A03F1
:10268000F350A027F450A1237D0E9D03F350A12702
:10269000000E9C03F350A127000E9B03F350A127CB
:1026A000000E9A03F350A1270D0E05D0D890A13348
:1026B000A0339F339E33E82EF9D79EC0A2F09FC06F
:1026C000A3F0A0C0A4F0A1C0A5F023D0C251C6ECD5
:1026D00067F08DC0A2F08EC0A3F08FC0A4F090C0B0
:1026E000A5F0A55101E14FD755D70001A26BA36B0F
:1026F000A46BA56B0ED002010831070B01E123D6B4
:10270000020A01E126D6060A01E127D7020ADEE025
:10271000ECD70001A551A411A31103E1C80EA25DDD
:1027200009E3CE0EA227FF0EA323A423A5230201B3
:10273000088F06D0A26BA36BA46BA56B0201089F48
:10274000A2C096F0A3C097F0A4C098F0A5C099F0DD
:102750001200EFC0D9FFF0C0DAFFDECFF4F0DDCF1A
:10276000F5F0000120EE02F0EF51D926F051DA2207
:10277000DECFF6F0DDCFF7F0010EF86FF969F4C0A7
:1027800095F0F5C096F0BDEC44F0F96FF9BF90D12B
:10279000FA6B070EFA6501D08BD1FA51020D7F0E4C
:1027A000F324D96E030EF420DA6EDECF64F0DDCFB1
:1027B00065F0F6C066F0F7C067F092EC3DF064514A
:1027C000651101E072D10B0EF925F66EF76AF80E6D
:1027D000F722F86A000EF8220800F5CFF1F0FAC0EF
:1027E000F2F0010EF36FF22B02D0D890F337F22FF4
:1027F000FCD70001F351F11501E157D1F86B26D157
:102800000F013891929051D10F01389192804DD1A2
:1028100092800F01388149D1FA51F2E0010AF4E0C7
:10282000030AF6E0ECD00F01389392923ED10F01EB
:10283000389392823AD192820F01388336D1FA517D
:10284000F2E0010AF4E0030AF6E0D9D00F0138956E
:1028500092942BD10F013895928427D192840F0145
:10286000388523D1FA51F2E0010AF4E0030AF6E0D8
:10287000C6D00F013897929618D10F0138979286DB
:1028800014D192860F01388710D1FA51F2E0010A73
:10289000F4E0030AF6E0B3D0929807D1928805D10C
:1028A000FA51FAE0010AFAE0CFD00F01389B929A70
:1028B000FCD00F01389B928AF8D0928A0F01388B96
:1028C000F4D0FA51F2E0010AF4E0030AF6E097D0FE
:1028D0000F013C919690E9D00F013C919680E5D094
:1028E00096800F013C81E1D0FA51F2E0010AF4E058
:1028F000030AF6E084D00F013C939692D6D00F01E4
:102900003C939682D2D096820F013C83CED0FA516E
:10291000F2E0010AF4E0030AF6E071D00F013B9502
:102920009594C3D00F013B959584BFD095840F013A
:102930003B85BBD0FA51F2E0010AF4E0030AF6E06D
:102940005ED00F013C959694B0D00F013C959684D3
:10295000ACD096840F013C85A8D0FA51F2E0010A70
:10296000F4E0030AF6E04BD00F013A9B949A9DD015
:102970000F013A9B948A99D0948A0F013A8B95D093
:10298000FA51F2E0010AF4E0030AF6E038D00F0150
:102990003B9B959A8AD00F013B9B958A86D0958A5E
:1029A0000F013B8B82D0FA51F2E0010AF4E0030AF6
:1029B000F6E025D00F013B9F959E77D00F013B9FFE
:1029C000958E73D0958E0F013B8F6FD0FA51F2E048
:1029D000010AF4E0030AF6E012D00F013B9D959C3A
:1029E00064D00F013B9D958C60D0958C0F013B8D81
:1029F0005CD0FA51F2E0010AF4E0030AF6E0010AC1
:102A000054D0929E52D0928E50D0FA51FAE0010AE0
:102A1000FAE01AD0929C49D0928C47D0FA51FAE051
:102A2000010AFAE011D0939C40D0938C3ED0FA5129
:102A3000FAE0010AFAE008D0939E37D0938E35D0A1
:102A4000FA51FAE0010AFAE0020A2FD0F95101E145
:102A5000E3D6010A01E1F3D6030A01E103D7010A33
:102A600001E113D7070A01E11BD7010A01E129D7C8
:102A7000030A01E139D7010A01E149D70F0A01E14F
:102A800059D7010A01E169D7030A01E179D7010A9F
:102A90008AE0070A9BE0010AACE0030AB6E0010AFB
:102AA000BDE01F0AC4E0010ACBE00001FA2B71D699
:102AB000F851020DF10EF324D96E020EF420DA6EF5
:102AC000DECFF1F0DDCFF2F020EE06F0EF51D926A7
:102AD000F051DA22F1C0DEFFF2C0DEFFDD6A120043
:102AE00000017F6F7D6B7E6B080E7F194BE128EE36
:102AF00024F0DE50DE10D8B4120028EE24F0DECF31
:102B000074F0DDCF75F0DF0E7425D96E050E7521DA
:102B1000DA6EDF502CE123C8E8FFFF0FE8CF23F87F
:102B200028EE23F0DF50020D060EF324D96E080EB6
:102B3000F420DA6EDECF26F8DDCF27F828EE23F07A
:102B4000DF50020D060EF324D96E080EF420DA6E63
:102B5000DE6ADD6A28EE23F0DF50020D140EF32446
:102B6000D96E080EF420DA6EDE6ADD6A05D028EE32
:102B700026F0DE06000EDD5A28EE24F0DE06000EFA
:102B8000DD5A000C28EE24F0250EDE5C020EDE5825
:102B900059E2200E7F1958E128EE23F0060EDF607F
:102BA00051D028EE24F0DECF74F0DDCF75F0E00ECA
:102BB0007425D96E050E7521DA6E000EDF6A28EED7
:102BC00024F0DE2ADD2228EE26F018EE23F0E7506E
:102BD000020D060EF324E16E080EF420E26EDECF45
:102BE000E6FFDDCFE5FF7469756928EE26F0DECFDC
:102BF00076F0DDCF77F028EE24F0DECF78F0DDCF71
:102C000079F07651785F7751795B745178277551F7
:102C1000792328EE23F0DF50020D140EF324D96E31
:102C2000080EF420DA6E78C0DEFF79C0DDFF23C81D
:102C3000E8FF010FE8CF23F8000EE8CF26F8E8CF31
:102C400027F8D8D07D69D6D028EE24F0DECF74F0F6
:102C5000DDCF75F0E00E7425D96E050E7521DA6EA4
:102C60007FC0DFFF28EE24F0DE2A000EDD2228EEF2
:102C700026F0DE2ADD22E50E646FFF0E656F64111B
:102C8000D8A4000E666F29EC63F028EE24F064519E
:102C9000DE5C6551DE584AE3010E7E6FE50E646F1F
:102CA000FF0E656F6411D8A4000E666F29EC63F007
:102CB0006451806F37D028EE24F0DECF74F0DDCF82
:102CC00075F0E00E766F050E776F8051765F000E1F
:102CD000775B74517625D96E75517721DA6EDF50A6
:102CE000786FE50E646FFF0E656F6411D8A4000E57
:102CF000666F29EC63F0E50E796FFF0E7A6F645111
:102D0000792765517A238051795F000E7A5B79C00B
:102D1000F6FF7AC0F7FFF86A0800F550781901E06D
:102D20007E6B8007805102E07E51C5E17E5162E0FA
:102D300028EE24F0DECF74F0DDCF75F0E50E646F81
:102D4000FF0E656F6411D8A4000E666F29EC63F066
:102D5000E00E766F050E776F6451765F6551775B95
:102D600074517625D96E75517721DA6EDF6AE50EDA
:102D7000646FFF0E656F6411D8A4000E666F29ECB6
:102D800063F028EE26F0DECF74F0DDCF75F06451ED
:102D9000745F6551755B28EE23F0DF50020D060E5F
:102DA000F324D96E080EF420DA6E74C0DEFF75C00D
:102DB000DDFF28EE26F0DECF74F0DDCF75F028EED3
:102DC00024F0DECF76F0DDCF77F07451765F755169
:102DD000775B28EE23F0DF50020D140EF324D96E3A
:102DE000080EF420DA6E76C0DEFF77C0DDFF010E3C
:102DF000E8CF22F87D29D8A41200BFEC64F097C375
:102E000064F098C365F064516511D8A4000E666F34
:102E100029EC63F064C07BF065C07CF097C36AF076
:102E200098C36BF06A516B11D8A4000E6C6F7BC015
:102E30006DF07CC06EF0F5EF51F00101656B646BD5
:102E4000626B606B616BCCC0A4F0CDC0A5F0100EBE
:102E50000001A66F010EA76F000EA86F010EA96FEB
:102E600095EC3BF0D251D36FD46B0F0ED327000EED
:102E7000D423040ED56FD435D433D333D52FFBD719
:102E8000D3510101636F635104E1010E636F626B03
:102E90000AD0D2C0D3F00F0E0001D317010ED8A470
:102EA000000E0101626F620541E1646B6351100D18
:102EB000F350F00F656F1ED0200E01016425D96E0E
:102EC000DA6A010EDA22100E6425E16EE26A010E62
:102ED000E222E7500001D36F010165510001D025C6
:102EE000E16E000ED121E26EE750D319DF6E0101D1
:102EF000642B652B63510001D36FD46BD33BD43B60
:102F0000F00ED417D3510F0BD413F00ED3170101C9
:102F100065510001D56FD66BD351D55DD651800A6E
:102F2000D76FD451800AD75963E2C6D70001D25176
:102F3000D025D36F000ED121D46FD2510F0BD35DAA
:102F40000101606F0001D451D8A0D4050101616F67
:102F5000656B0001D2510F0B010165610FD0655106
:102F60006025D96E000E6121DA6E300E6525E16EA6
:102F7000E26A010EE222DFCFE7FF16D00001D25154
:102F80000F0B0101651909E1300E6525D96EDA6A6A
:102F9000010EDA22800EDF6E07D0300E6525D96E65
:102FA000DA6A010EDA22DF6A652B0F0E6565D1D76A
:102FB000656B200E6525D96EDA6A010EDA22000EE5
:102FC0006525E16EE26A010EE222E7500001D36F4F
:102FD000300E01016525E16EE26A010EE222E75042
:102FE0000001D319DF6E0101652B0F0E6565E1D776
:102FF000500E0001646F010E656F676B666B696B45
:10300000100E686F0EEC6EF00101656B51D001017E
:10301000646B400E6425D96EDA6A010EDA226551BE
:103020000001D36FD46BD33BD43BF00ED417D351F4
:103030000F0BD413F00ED317D0C0D5F0D1C0D6F0FB
:10304000D351D527D451D623010164510001D52590
:10305000E16E000ED621E26EE750D76F500E0101EF
:103060006425E16EE26A010EE222E7500001D71901
:10307000DF6E0101642B0F0E6465CBD7500E00018B
:10308000646F010E656F400E666F010E676F696BAE
:10309000100E686F15EC61F0500E906F010E916F7D
:1030A000CCC092F0CDC093F023EC6EF00101652B03
:1030B0000001D369D469010163510001D56FD66B5A
:1030C000D351D527D451D623010165510001D76FC3
:1030D000D86BD551D75DD851800AD96FD651800AA7
:1030E000D95995E30101656B400E6525D96EDA6A01
:1030F000010EDA22200E6525E16EE26A010EE2225F
:10310000E7500001D36F500E01016525E16EE26AC0
:10311000010EE222E7500001D319DF6E0101652B99
:103120000F0E6565E1D7400E0001906F010E916FA3
:10313000CCC092F0CDC093F023EC6EF0CEC064F022
:10314000CFC065F0400E666F010E676F696B100EA1
:10315000686F15EF61F06651D96EDA6ADF506F6FF4
:103160006E6B69D1675101E14BD16E51020D820E38
:10317000F324D96E020EF420DA6EDE2801E140D18C
:10318000FE0E686F69696E51020D820EF324D96ECE
:10319000020EF420DA6EDF506A6F6B6B68516A279B
:1031A00069516B23440E6A25F66EF80E6B21F76E9B
:1031B000F86A000EF8220800F5506FC06CF06D6BD5
:1031C0006C27000E6D236651D96EDA6ADF506C5F92
:1031D000000E6D5B6DBF14D16D5105E1100E6C5D7D
:1031E00001E32FD10DD12DD16F516425D96E000E81
:1031F0006521DA6E030EDF6E6F2B6F516425D96E79
:10320000000E6521DA6EDF6A6E51020D830EF32423
:10321000D96E020EF420DA6EDFA009D000016F51E2
:103220006425D96E000E6521DA6E000EDB80000188
:103230006E51020D830EF324D96E020EF420DA6E65
:10324000DFA208D06F516425D96E000E6521DA6EB9
:10325000000EDB8200016E51020D830EF324D96E45
:10326000020EF420DA6EDFA409D000016F5164254C
:10327000D96E000E6521DA6E000EDB8400016F2B23
:10328000D9D06F516425D96E000E6521DA6E050E16
:10329000DF6E6F2B6F516425D96E000E6521DA6EDB
:1032A000DF6A6E51020D830EF324D96E020EF420F4
:1032B000DA6EDFA609D000016F516425D96E000EC9
:1032C0006521DA6E000EDB8000016E51020D830E67
:1032D000F324D96E020EF420DA6EDFA808D06F5105
:1032E0006425D96E000E6521DA6E000EDB820001C6
:1032F0006E51020D830EF324D96E020EF420DA6EA5
:10330000DFAABCD7B2D76F516425D96E000E6521F4
:10331000DA6E060EDF6E6F2B6F516425D96E000ECC
:103320006521DA6EBAC2DFFF6F2BBFEC73F0800A43
:10333000A00F05E3BFEC73F0800A600F09E3000102
:103340006F516425D96E000E6521DA6E200E0AD009
:1033500000016F516425D96E000E6521DA6EBFEC55
:1033600073F03F0BDF6E8AD76F516425D96E000E64
:103370006521DA6E070EDF6E6F2B6F516425D96EF3
:10338000000E6521DA6EDF6A6E51020D830EF324A2
:10339000D96E020EF420DA6EDFAE09D000016F5153
:1033A0006425D96E000E6521DA6E000EDB80000107
:1033B0006E51020D830EF324D96E020EF420DA6EE4
:1033C000DFAC5CD76F516425D96E000E6521DA6ED3
:1033D000000EDB8253D70201B769B86B00016E5152
:1033E000020D820EF324D96E020EF420DA6E6F51B4
:1033F0006425E16E000E6521E26EDFCFE7FF3ED768
:103400006E51020D820EF324D96E020EF420DA6E94
:10341000DF50020AE0E0010A01E1E6D6070ADEE039
:10342000010A01E12ED7030A01E16DD7010A9CE0F0
:103430000F0AD4E06E2B0201815100016E5D01E2A2
:1034400091D66651D96EDA6A6FC0DFFF12008F6BBA
:103450006C518F25D96EDA6A8F51750FE16EE26A71
:10346000DFCFE7FF8F2B0F0E8F65F2D70A0E496E65
:10347000010E486E8F6B8F51750FD96EDA6ADF506F
:103480006D6F8F516A25D96E000E6B21DA6E6D510A
:10349000DF1A8F2B0F0E8F65EED78F6B8F516A253A
:1034A000D96E000E6B21DA6EDF506D6F6E6B0B0EF6
:1034B0006D25F66EF70E6E21F76EF86A000EF82293
:1034C0008F516A25D96E000E6B21DA6E0800F5CF98
:1034D000DFFF8F2B0F0E8F65E1D76AC064F06BC0E2
:1034E00065F066EC30F0490401E111D18F6B8F512A
:1034F0006A256D6F000E6B216E6F6D29D96E000EFF
:103500006E21DA6EDF506F6F8F516A25D96E000E13
:103510006B21DA6EDF506F198D6F8F516A256D6FD9
:10352000000E6B216E6F030E6D25D96E000E6E219D
:10353000DA6EDF506F6F8F516A25706F000E6B214E
:10354000716F020E7025D96E000E7121DA6EDF5098
:103550006F198E6F8D198B6F8F516A256D6F000EED
:103560006B216E6F6D29D96E000E6E21DA6EDF5001
:103570006F6F8F516A25706F000E6B21716F020E95
:103580007025D96E000E7121DA6EDF506F198C6FC5
:103590007F0E8D650CD01B0E8DC06DF06E6BD890BC
:1035A0006D376E376D19856F6E51866F05D0D89067
:1035B0008D35856F866B863785C08DF07F0E8C6567
:1035C0000CD01B0E8CC06DF06E6BD8906D376E37C3
:1035D0006D19876F6E51886F05D0D8908C35876FC5
:1035E000886B883787C08CF07F0E8E650CD01B0EE1
:1035F0008EC06DF06E6BD8906D376E376D19896F18
:103600006E518A6F05D0D8908E35896F8A6B8A3754
:1036100089C08EF08F516A25D96E000E6B21DA6E4B
:103620008F516A25E16E000E6B21E26EE7508B1917
:103630008D19DF6E8F516A256D6F000E6B216E6FD5
:103640006D29D96E000E6E21DA6E8F516A256F6F6B
:10365000000E6B21706F6F29E16E000E7021E26E1B
:10366000E7508B198C19DF6E8F516A256D6F000E34
:103670006B216E6F020E6D25D96E000E6E21DA6E13
:103680008F516A256F6F000E6B21706F020E6F25D0
:10369000E16E000E7021E26EE7508B198E19DF6E1D
:1036A0008F516A256D6F000E6B216E6F030E6D25B5
:1036B000D96E000E6E21DA6E8F516A256F6F000E83
:1036C0006B21706F020E6F25E16E000E7021E26EAD
:1036D000E750716F8F516A25726F000E6B21736F07
:1036E0007229E16E000E7321E26EE750746F8F5104
:1036F0006A25E16E000E6B21E26EE75074197119B4
:103700008B19DF6E040E8F270F0E8F65F0D6750EA6
:10371000646F31EC21F08F6B8F51750FD96EDA6ABF
:10372000DF506D6F8F516A25D96E000E6B21DA6EF6
:103730006D51DF1A8F2B0F0E8F65EED7490649505A
:1037400001E0ABD61200E16F100E0001E56FE46BF3
:10375000E20E646F656B676B666B696B010E686F79
:103760000EEC6EF03A0E646F0A0E656F676B666B57
:10377000010E696F0F0E686F0EEC6EF0C90E646F6C
:10378000030E656F676B666B696B100E686F0EECEE
:103790006EF0E10507E1E2511F0B8009E26F0201C3
:1037A000068104D0E2511F0B4009E26FFC0E0001BC
:1037B000E217E30EE2173A0EE525D96EDA6A0A0E31
:1037C000DA22E2C0DFFFE52B3A0EE525646F656B78
:1037D0000A0E65231F0E666F020E676F696B040E7B
:1037E000686F15EC61F0040EE527E36B020108AB8E
:1037F0002ED00001E38F0201AA4BAB2B7D51AA19F9
:10380000AB1105E1C551B95D02E3C86B1BD07D5119
:103810000001DF6FE06B0201AA510001DF5D0201D0
:10382000AB510001E05915E20201C82BC8517E5D81
:1038300009E2C6EC4CF00201AA6BAB6BC86B00014D
:10384000E39D07D00001E38D0201068902D000014B
:10385000E39F020106A304D00001E38B020106935B
:103860000001E3990201815104E00001DD51DE1104
:1038700004E1F00E0001E31707D0E8EC47F0DF6F3A
:10388000E319F00BDF19E36F3A0EE525D96EDA6A1A
:103890000A0EDA22E3C0DFFFE52B3A0EE525646F5E
:1038A000656B0A0E65230C0E666F020E676F696BFF
:1038B000020E686F15EC61F0020EE52702018151DE
:1038C0000EE00001DD51DE110AE03A0E646F0A0ECF
:1038D000656FE50E666F010E676FABEC18F03A0E80
:1038E0000001E525D96EDA6A0A0EDA22DAC0DFFFB6
:1038F000E52BDD51DE112DE03A0EE525646F656B99
:103900000A0E6523DBC066F0DCC067F0DDC068F03E
:10391000DEC069F015EC61F0DBC0A4F0DCC0A5F0FE
:10392000DDC0A6F0A76B0CC2A8F00DC2A9F00EC2B4
:10393000AAF00FC2ABF0330EAC6F020EAD6FE5C054
:10394000AEF03A0EAF6F0A0EB06F73EC32F0DD518D
:1039500029D00201815127E0490E0001646F0B0E4E
:10396000656FE40E666F676BABEC18F0490EA46FE1
:103970000B0EA56FE4C0A6F0A76B0CC2A8F00DC299
:10398000A9F00EC2AAF00FC2ABF0230EAC6F020E6C
:10399000AD6FE5C0AEF03A0EAF6F0A0EB06F73ECCC
:1039A00032F0E451E5270CC26EF00DC26FF00EC28A
:1039B00070F00FC271F00001E551F00F726F490E07
:1039C000736F000EEAEC53F03A0E646F0A0E656FE7
:1039D000C90E666F030E676F696B100E686F15EC8A
:1039E00061F0230ECC6F020ECD6FC90ECE6F030EA9
:1039F000CF6F3A0ED06F0A0ED16FE5C0D2F01DEC3A
:103A000017F03A0EE525646F656B0A0E6523C90E43
:103A1000666F030E676F696B040E686F15EC61F0DB
:103A2000040EE527F00EE5250201AE6FAF6BFF0E29
:103A3000AF23FF0C60D1965101E197D0280E646F3F
:103A4000080E656F5BC366F05CC367F02BEC6CF02F
:103A5000280E646F080E656F6411D8A4200E666F7F
:103A600029EC63F064C0A4F065C0A5F0280EA4257D
:103A7000806F080EA521816F94C0D9FF95C0DAFF31
:103A8000DF50826F836B856B0A0E846F2DEC6AF0BA
:103A9000280E646F080E656F6411D8A4200E666F3F
:103AA00029EC63F064C0A4F065C0A5F0280EA4253D
:103AB000D96E080EA521DA6E200EDF6EA44BA52B61
:103AC0009869996996519A6F9B6B98519A27995169
:103AD0009B23120E9C6F020E9D6FA4519C5FA551FB
:103AE0009D5BD8909D319F6F9C319E6F9A519E5DDA
:103AF0009B519F5910E2120E986F020E996FA451BC
:103B0000985FA551995BD89099319A6F9831A06FC1
:103B10009AC0A1F006D0FF0E9625A06FA16BFF0EF4
:103B2000A1239429886F000E9521896F280EA42562
:103B30008A6F080EA5218B6FA05190EC45F0280EDE
:103B4000646F080E656F6411D8A4200E666F29ECAF
:103B500063F064C0A2F065C0A3F0280E6A6F080E7F
:103B60006B6F6A11D8A4200E14D057C364F058C3E9
:103B700065F064516511D8A4000E666F29EC63F0FE
:103B800064C0A2F065C0A3F057C36AF058C36BF0DD
:103B9000ADD06C6FA2C06DF0A3C06EF0F5EF51F028
:103BA000965155E0280E646F080E656F59C366F094
:103BB0005AC367F02BEC6CF0280E646F080E656F2B
:103BC0006411D8A4200E666F29EC63F064C0A4F0E1
:103BD00065C0A5F0280EA425D96E080EA521DA6EC1
:103BE000200EDF6EA44BA52B120E986F020E996F5C
:103BF000A451985FA551995BD89099319B6F9831EA
:103C00009A6F96519A5D000E9B5910E2120E986FB2
:103C1000020E996FA451985FA551995BD890993184
:103C20009A6F9831A06F9AC0A1F003D096C0A0F00F
:103C3000A16B94C088F095C089F0280EA4258A6FE6
:103C4000080EA5218B6FA05190EC45F078D755C395
:103C500064F056C365F064516511D8A4000E666F18
:103C600029EC63F064C0A2F065C0A3F055C36AF00C
:103C700056C36BF03BD05DC364F05EC365F0645126
:103C80006511D8A4000E666F29EC63F064C0A2F041
:103C900065C0A3F05DC36AF05EC36BF027D05FC35D
:103CA00064F060C365F064516511D8A4000E666FBE
:103CB00029EC63F064C0A2F065C0A3F05FC36AF0B2
:103CC00060C36BF013D061C364F062C365F06451EC
:103CD0006511D8A4000E666F29EC63F064C0A2F0F1
:103CE00065C0A3F061C36AF062C36BF06A516B11E7
:103CF000D8A4000E4ED700019751D1E0010A01E18E
:103D00009AD6030AB8E0010A01E14AD7070ADBE0C4
:103D100012008F6B8FC3A2F190C3A3F1A251A31124
:103D2000D8A4000EA46F926B39D09251090DF350B4
:103D30008125886FF4508221896F000E83218A6F5C
:103D400088C1F6FF89C1F7FF8AC1F8FF21EE93F021
:103D5000080E0900F5CFDEFFE806FBE293C164F030
:103D600094C165F08551020D140EF324D96E080E2E
:103D7000F420DA6EDECF88F1DDCF89F1E00E882500
:103D80000001666F050E010189210001676F92EC49
:103D90003DF06451651105E00101922B8451925D63
:103DA000C4E301018451925D01E3F3D09551961172
:103DB000971101E0E3D09851991101E1EAD09B51AC
:103DC000886F896B855123C88AF18AC18BF18C6B0E
:103DD0008B5F000E8C5B88518B1903E189518C1924
:103DE000D8A4D7D08529916F906B9B5114E0912B6B
:103DF0009105020D060EF324D96E080EF420DA6E3A
:103E0000DE50DE1003E1010E906F05D028EE23F0A6
:103E10009151DE5CECE2905101E0BBD09C0E0001C0
:103E2000646F010E656F676B666B696B090E686F77
:103E30000EEC6EF001018551886F896B882B000EA6
:103E40008923895128E1070E885D25E28551886F15
:103E5000896BD89088378937080E8825D96E080E67
:103E60008921DA6EDE50DE1016E08551886F896B8D
:103E7000D89088378937160E8825D96E080E892183
:103E8000DA6EDECF8AF1DDCF8BF1E00E8A259C6FF2
:103E9000050E8B219D6F8551886F896B020E8827D7
:103EA000000E8923895128E1070E885D25E285519E
:103EB000886F896BD890883789370A0E8825D96E24
:103EC000080E8921DA6EDE50DE1016E08551886F0B
:103ED000896BD89088378937180E8825D96E080ED7
:103EE0008921DA6EDECF8AF1DDCF8BF1E00E8A25F3
:103EF0009E6F050E8B219F6F8551886F896B030E16
:103F00008827000E8923895128E1070E885D25E264
:103F10008551886F896BD890883789370C0E882532
:103F2000D96E080E8921DA6EDE50DE1016E085515A
:103F3000886F896BD890883789371A0E8825D96E93
:103F4000080E8921DA6EDECF8AF1DDCF8BF1E00E2B
:103F50008A25A06F050E8B21A16F9C0E0001EF6FCB
:103F6000010EF06F01D815D00500FA6E01019851CD
:103F7000FD6E9951FE6EFF6AFA501200010E8F6FAE
:103F800086C1D9FF87C1DAFF92C1DFFFA26BA36BA5
:103F9000A46B0101A251A311A41118E0A2C164F005
:103FA000A3C165F0A4C166F029EC63F064C08DF193
:103FB00065C08EF1A2C16AF0A3C16BF0A4C16CF020
:103FC0008DC16DF08EC16EF0F5EC51F001018F5195
:103FD00012000001AB69AC69AD69AE69020108BFAE
:103FE0002BD10831070B030A05E10851F10B080931
:103FF000086F120006B52DEF6FF008A1120006A1A0
:104000004DD0B351B15D34E30851F10B0C09086F89
:104010007B510001A76F02017C510001A86FA96BC1
:10402000AA6B0C0ED890A737A837A937AA37E82E65
:10403000F9D7A7C064F0A8C065F0A9C066F0AAC00F
:1040400067F07D0E686F696B6A6B6B6B45EC59F0BE
:1040500064C071F065C072F066C073F067C074F040
:104060000201C25147EC67F00201C251C9EF55F09D
:10407000ACEC72F00101B351B411D8B412000001DC
:10408000946B956B966B976B0500FA6A0101B351BF
:10409000FD6EB451FE6EFF6AFA501200B251B05D6F
:1040A00001E2B3D00851F10B0C09086F010EFDECD1
:1040B0005CF0000915E14A0E966F0A0E976FAEC2CA
:1040C00098F056EC27F09651971103E10201B22BBC
:1040D0001200A5EC72F00101B351B411D0E112004D
:1040E000AF6B5BD00001AF510E0D040EF324D96EFF
:1040F000050EF420DA6EDE044EE1AF510E0D080E0F
:10410000F324D96E050EF420DA6EDE50DE10DE10D8
:10411000DE1041E0AF510E0D080EF324D96E050EEE
:10412000F420DA6EDE50AB5DDE50AC59DE50AD5996
:10413000DE50AE5930E3AF510E0D050EF324D96EAB
:10414000050EF420DA6EDF500F0BA76FA7510201A6
:10415000B95D21E30001AF510E0D050EF324D96EB8
:10416000050EF420DA6EDF380F0BA76F0201B9518C
:104170000001A75D10E3AF510E0D080EF324D96EB8
:10418000050EF420DA6EDECFABF0DECFACF0DECF82
:10419000ADF0DECFAEF00001AF2BAF510201C75D35
:1041A000A1E2ABC0A7F0ACC0A8F0ADC0A9F0AEC012
:1041B000AAF00C0ED8900001A737A837A937AA3764
:1041C000E82EF8D7000EA725646F200EA821656F92
:1041D000030EA921666F000EAA21676F7D0E686F1E
:1041E000696B6A6B6B6B45EC59F064C071F065C02C
:1041F00072F066C073F067C074F00201C45147ECFE
:1042000067F00201C451C9EF55F0A5EC72F001014D
:10421000B351B411D8B412000001946B956B966B36
:10422000010E976F0500FA6E0101B351FD6EB45196
:10423000FE6EFF6AFA5012000101B351B411D8B4F6
:1042400012000001946B956B966B020E976F050040
:10425000FA6E0101B351FD6EB451FE6EFF6AFA5061
:1042600012006451D96EDA6A0D0ED926DF50656FDF
:10427000666B0B0E6525F66EF70E6621F76EF86A13
:10428000000EF8220800F5CF67F06451D96EDA6AA3
:104290006751DF1A6451D96EDA6A0E0ED926DF50E3
:1042A000656F666B0B0E6525F66EF70E6621F76E71
:1042B000F86A000EF8220800F5CF67F06451D96E55
:1042C000DA6AD92A6751DF1A6451D96EDA6A0F0E99
:1042D000D926DF50656F666B0B0E6525F66EF70EFF
:1042E0006621F76EF86A000EF8220800F5CF67F035
:1042F0006451D96EDA6A020ED9266751DF1A645109
:10430000D96EDA6A0C0ED926DF50656F666B0B0E1C
:104310006525F66EF70E6621F76EF86A000EF82234
:104320000800F5CF67F06451D96EDA6A030ED9261A
:104330006751DF1A6451D96EDA6A4850DF1A7F0E6E
:1043400048640CD01B0E48C065F0666BD89065378A
:1043500066376519686F6651696F05D0D890483423
:10436000686F696B693768C048F06451D96EDA6A62
:10437000DF50656F6451D96EDA6A040ED926655133
:10438000DF1A6451D96EDA6AD92ADF50656F645139
:10439000D96EDA6A050ED9266551DF1A6451D96ED5
:1043A000DA6A020ED926DF50656F6451D96EDA6A77
:1043B000060ED9266551DF1A6451D96EDA6A030EEA
:1043C000D926DF50656F6451D96EDA6A070ED92697
:1043D0006551DF1A6451D96EDA6A040ED926DF50AE
:1043E000656F6451D96EDA6A080ED9266551DF1AF5
:1043F0006451D96EDA6A050ED926DF50656F6451B3
:10440000D96EDA6A090ED9266551DF1A6451D96E60
:10441000DA6A060ED926DF50656F6451D96EDA6A02
:104420000A0ED9266551DF1A6451D96EDA6A070E71
:10443000D926DF50656F6451D96EDA6A0B0ED92622
:104440006551DF1A6451D96EDA6A080ED926DF5039
:10445000656F6451D96EDA6A0C0ED9266551DF1A80
:104460006451D96EDA6A090ED926DF50656F64513E
:10447000D96EDA6A0D0ED9266551DF1A6451D96EEC
:10448000DA6A0A0ED926DF50656F6451D96EDA6A8E
:104490000E0ED9266551DF1A6451D96EDA6A0B0EF9
:1044A000D926DF50656F6451D96EDA6A0F0ED926AE
:1044B0006551DF1A1200A369A469A569A669A26BF8
:1044C000A76BA7510E0D040EF324D96E050EF42030
:1044D000DA6EDE0401E093D0A7510E0D080EF3242E
:1044E000D96E050EF420DA6EDE50DE10DE10DE101E
:1044F00001E185D0A7510E0D080EF324D96E050EEB
:10450000F420DA6EDE500201A25DDE50A359DE50C7
:10451000A459DE50A55936E20001A7510E0D080E30
:10452000F324D96E050EF420DA6EDECF96F0DECFDE
:1045300097F0DECF98F0DECF99F00201A251000192
:10454000965D9A6F0201A351000197599B6F02017A
:10455000A451000198599C6F0201A551000199597D
:104560009D6FA7510E0D080EF324D96E050EF42091
:10457000DA6E9AC0DEFF9BC0DEFF9CC0DEFF9DC0EE
:10458000DEFF0DD00001A7510E0D080EF324D96EE9
:10459000050EF420DA6EDE6ADE6ADE6ADD6AA75195
:1045A0000E0D080EF324D96E050EF420DA6EDE50DF
:1045B000A35DDE50A459DE50A559DE50A6591FE375
:1045C000A7510E0D080EF324D96E050EF420DA6EF5
:1045D000DE50DE10DE10DE1012E0A7510E0D080EC8
:1045E000F324D96E050EF420DA6EDECFA3F0DECF11
:1045F000A4F0DECFA5F0DECFA6F0010EA26FA72BB0
:104600000F0EA7655ED7A205D8A41200A3C0A2F220
:10461000A4C0A3F2A5C0A4F2A6C0A5F2A65106E1CB
:10462000A329FF0EA4590F0EA55918E3A3C064F0E7
:10463000A4C065F0A5C066F0A6C067F07D0E686FE7
:10464000696B6A6B6B6B45EC59F00C0ED890643754
:10465000653766376737E82EF9D71FD0A3C096F0C5
:10466000A4C097F0A5C098F0A6C099F00C0ED89001
:104670009637973798379937E82EF9D796C064F070
:1046800097C065F098C066F099C067F07D0E686FBE
:10469000696B6A6B6B6B45EC59F064C09EF065C04A
:1046A0009FF066C0A0F067C0A1F09EC071F09FC0EF
:1046B00072F0A0C073F0A1C074F00201C35147ECC6
:1046C00067F00201C351C9EF55F00101E8A506D01A
:1046D000800E0001976F030E966F030CE8C198F0EF
:1046E000030E0001981705E0800E976F040E966F79
:1046F000040C8A869651971107E1000E7E6F040E16
:104700007D6F78EC0FF006D096C07DF097C07EF0FC
:1047100078EC0FF00101DD0511E1010E0001666F7B
:10472000220E52EC70F00001666B400E52EC70F0FD
:104730000001666B410E52EC70F014D0F9C166F0C6
:10474000120E52EC70F0FAC166F0130E52EC70F0DB
:104750000001666B400E52EC70F00001666B410E7A
:1047600052EC70F00101E883E70EE8170001965162
:10477000971108E1DDC169F0000E6A6F050E7CEC4F
:1047800043F041D00101DD0509E1010E0001696F2F
:10479000000E6A6F060E7CEC43F035D0000E00016F
:1047A000696F6A6F050E7CEC43F000019651986FBB
:1047B0009751996F9A6B9B6B0C0ED89098379937DD
:1047C0009A379B37E82EF9D798C064F099C065F006
:1047D0009AC066F09BC067F07D0E686F696B6A6B6C
:1047E0006B6B45EC59F064C071F065C072F066C047
:1047F00073F067C074F00101ED5147EC67F00101FF
:10480000ED51C9EC55F00101EF51F011F111F21128
:1048100059E0F25106E1EF29FF0EF0590F0EF15960
:1048200019E3EFC164F0F0C165F0F1C166F0F2C1C7
:1048300067F07D0E0001686F696B6A6B6B6B45EC0E
:1048400059F00C0ED8906437653766376737E82E15
:10485000F9D720D0EFC198F0F0C199F0F1C19AF0EA
:10486000F2C19BF00C0ED8900001983799379A3717
:104870009B37E82EF8D798C064F099C065F09AC0CD
:1048800066F09BC067F07D0E686F696B6A6B6B6B3F
:1048900045EC59F064C09CF065C09DF066C09EF088
:1048A00067C09FF09CC071F09DC072F09EC073F015
:1048B0009FC074F00101EE5147EC67F00101EE5129
:1048C000C9EC55F00001966B976B12009E96C6AE30
:1048D000E0D0C69E506A010120EE03F0BB51D926FC
:1048E000BC51DA22DECF04F0DDCF05F004C0D9FFE1
:1048F00005C0DAFF010EDF6EBB6BBC6B120001015D
:10490000B0B31200AEC1BBF1AFC1BCF1AEC1D9FFB3
:10491000AFC1DAFFDF50516E20EE01F0AE51D92663
:10492000AF51DA22DECF40F0DDCF41F0040EAE27EA
:10493000000EAF23D30EAE1907E1020EAF1904E14A
:10494000CF0EAE6F020EAF6FB091AC51AE1904E155
:10495000AD51AF1901E1B083C580020E506E020C5B
:10496000C5AC04D015D0040ED8EF68F0D890010182
:10497000FC31056EFB31046E0450C96EFBA103D0FF
:104980000B0E506E0B0C030E506E030CC5AC03D017
:104990000101B22BE8D7C5820101FC51060B046E60
:1049A000056AF00E0410FB6F0550FC6FFB81010ED1
:1049B000466ED3D746041AE040C0D9FF41C0DAFFA3
:1049C000DECFFBF1DDCFFCF120EE03F04050D92625
:1049D0004150DA22DECF04F2DDCF05F220EE02F004
:1049E0004050D9264150DA22DF50476EFBC1C9FF43
:1049F0000101FBA1C8D7050E506E050CC5AC06D051
:104A00000101B22BC59C050ED8EF68F04706472878
:104A100009E1050E4026000E4122512E01D031D071
:104A2000C5829BD704C2D9FF05C2DAFFDF50C96E29
:104A30000201044B052B1200C5AC07D00101B22BBB
:104A4000040ED8EC68F0C59C1200C586080E506EA6
:104A5000080C080E506EC586080C04C2D9FF05C2AA
:104A6000DAFFC9CFDFFF0201044B052B470604E044
:104A7000C59A060E506E03D0C58A9EEC71F0C588AB
:104A80001200000ED8EF68F00101B22B060ED8EF2D
:104A900068F0505001E133D7010AC2E0030A8AE00E
:104AA000010AACE0070AEDE0010AC6E0030AD1E022
:104AB000010AE7E00F0AD1E0020A01E151D7010A39
:104AC00001E164D7E1D76AC0D9FF6BC0DAFFDF50DC
:104AD0007D6F6A4B6B2B7D5109EC6FF0F4E2796BC3
:104AE0007A6B7B6B7C6B786B2D0E7D190BE1010E65
:104AF000786F6AC0D9FF6BC0DAFFDF507D6F6A4BF9
:104B00006B2B03D02B0E7D19F4E0300E7D1927E1BD
:104B10006AC0D9FF6BC0DAFFDF507D6F6A4B6B2B29
:104B20006E516F1104E0100E6E196F1112E1780EC4
:104B30007D1903E0580E7D190CE16F6B100E6E6F3E
:104B40006AC0D9FF6BC0DAFFDF507D6F6A4B6B2BF9
:104B500006D06E516F1103E16F6B080E6E6F6E51D0
:104B60006F1103E16F6B0A0E6E6F7D5198EC6EF062
:104B700006E37D51B5EC71F0C90F7D6F06D07D5114
:104B800034EC70F065E3300E7D5F7D51706F716BBA
:104B90006E51705D7151800A726F6F51800A725947
:104BA00057E26EC070F06FC071F0000E71BFFF0E63
:104BB000726F736F70517903F3CF74F0F4CF75F0A7
:104BC000766B776B7A03F3507527F4507623000EDB
:104BD000772371517903F3507527F4507623000E33
:104BE000772370517B03F3507627F450772371516C
:104BF0007A03F3507627F450772372517903F350F8
:104C00007627F45077237C517003F3507727715146
:104C10007B03F350772772517A03F3507727735150
:104C20007903F35077277D517425796F000E752134
:104C30007A6F000E76217B6F000E77217C6F6AC041
:104C4000D9FF6BC0DAFFDF507D6F6A4B6B2B8DD7BE
:104C50006C516D110EE0FF0E6A25706FFF0E6B2117
:104C6000716F6CC0D9FF6DC0DAFF70C0DEFF71C01C
:104C7000DDFF78511AE079C070F07AC071F07BC026
:104C800072F07CC073F0701F711F721F731F702B46
:104C9000000E71237223732370C06AF071C06BF031
:104CA00072C06CF073C06DF0000C79C06AF07AC00D
:104CB0006BF07BC06CF07CC06DF012007F6B7AC033
:104CC00080F07BC081F0DED002018151020D830EA5
:104CD000F324D96E020EF420DA6EDF908151020DBA
:104CE000830EF324D96E020EF420DA6EDF92815126
:104CF000020D830EF324D96E020EF420DA6EDF94D7
:104D00008151020D830EF324D96E020EF420DA6E67
:104D1000DF968151020D830EF324D96E020EF4202A
:104D2000DA6EDF988151020D830EF324D96E020EE4
:104D3000F420DA6EDF9A8151020D830EF324D96ECE
:104D4000020EF420DA6EDF9C8151020D830EF324F3
:104D5000D96E020EF420DA6EDF9E80C0D9FF81C0CA
:104D6000DAFF8151020D820EF324E16E020EF4206F
:104D7000E26EDFCFE7FF60D080C064F081C065F0F5
:104D800080EC6BF064C080F065C081F0020181515D
:104D9000020D820EF324D96E020EF420DA6EDF6863
:104DA00062D080C071F081C072F0ADEC2FF071C0A4
:104DB00080F072C081F057D080C064F081C065F08F
:104DC000B5EC62F064C080F065C081F04CD080C06A
:104DD00070F081C071F019EC33F070C080F071C0D8
:104DE00081F041D080C064F081C065F01EEC73F0AA
:104DF00064C080F065C081F036D080C070F081C0A2
:104E000071F031EC29F070C080F071C081F02BD0CE
:104E100080C069F081C06AF03FEC6FF069C080F03B
:104E20006AC081F020D0010E7F6F7C517A25806F9F
:104E3000000E7B21816FAAD780C0D9FF81C0DAFF25
:104E40000001804B812BDF50020A96E0010AA9E0A5
:104E5000070AB2E0010ABBE0030AC4E0010ACDE0A0
:104E60000F0AD6E0E0D702018151020D820EF32431
:104E7000D96E020EF420DA6EDE2804E0100E816195
:104E800001D0812B00017C517A257D6F000E7B21A2
:104E90007E6F7D51805D7E51815903E27F5101E13A
:104EA00013D780C07AF081C07BF012000101E8A521
:104EB00006D0800E0001976F030E966F030CE8C1B9
:104EC00099F0030E0001991705E0800E976F040E0C
:104ED000966F040C0101DD5109E1400E0001986557
:104EE00005D0800E976F020E966F020C8A86010124
:104EF000EC518DEC70F0000E7E6F040E7D6F78EC3F
:104F00000FF00101DD0523E198C066F0220E52EC9E
:104F100070F00A0ED1EC6EF0A56FF00EA517A58704
:104F2000A5C066F00A0E52EC70F0400E0001666FEC
:104F300052EC70F00001666B410E52EC70F0DDC176
:104F400069F0010E00016A6F7CEC43F00AD00001A9
:104F5000666B400E52EC70F00001666B410E52EC35
:104F600070F00101DD5105E198C066F0000E52ECD1
:104F700070F0EEEC73F0800E41EC73F00001A66B64
:104F80000BD0A6519625D96E000E9721DA6EDF5010
:104F900041EC73F00001A62B9851A65DF2E3ECEC16
:104FA00073F00101E881E70EE817DDC169F0000E3A
:104FB00000016A6F030E7CEC43F00001716B726BB1
:104FC0000A0E736F746B0101EC5147EC67F001013D
:104FD000EC51C9EC55F00101EF51F011F111F21152
:104FE00059E0F25106E1EF29FF0EF0590F0EF15989
:104FF00019E3EFC164F0F0C165F0F1C166F0F2C1F0
:1050000067F07D0E0001686F696B6A6B6B6B45EC36
:1050100059F00C0ED8906437653766376737E82E3D
:10502000F9D720D0EFC199F0F0C19AF0F1C19BF00F
:10503000F2C19CF00C0ED890000199379A379B373B
:105040009C37E82EF8D799C064F09AC065F09BC0F1
:1050500066F09CC067F07D0E686F696B6A6B6B6B66
:1050600045EC59F064C0A1F065C0A2F066C0A3F0A1
:1050700067C0A4F0A1C071F0A2C072F0A3C073F029
:10508000A4C074F00101EE5147EC67F00101EE514C
:10509000C9EC55F00001966B976B12000001746F1C
:1050A000210E7419D8A41200030E796F7A6B756BF8
:1050B000766B776B786B750E646F656B7A51030D49
:1050C00070C072F071C073F0F3507227F450732304
:1050D0000D0E7225666F000E7321676F696B030EEC
:1050E000686F15EC61F075C064F076C065F077C04C
:1050F00066F078C067F0640E686F696B6A6B6B6B03
:1051000050EC56F064C075F065C076F066C077F07C
:1051100067C078F0755176117711781101E194D05C
:1051200075C064F076C065F077C066F078C067F04F
:10513000FCEC5EF0000901E08CD07A510E0D000EFF
:10514000726F050E736FF3507227F4507323795109
:105150000E0DF3507225D96EF4507321DA6E75C0BE
:10516000DEFF76C0DEFF77C0DEFF78C0DEFF7A515B
:105170000E0D000E726F050E736F050E7227000E76
:105180007323F3507227F450732379510E0DF350AB
:105190007225D96EF4507321DA6EDF500F0B50096F
:1051A000DF6E00017A510E0D000E726F050E736FE7
:1051B000050E7227000E7323F3507227F4507323E9
:1051C00079510E0DF3507225D96EF4507321DA6EB9
:1051D000F00EDF167A510E0D000E726F050E736F12
:1051E000060E7227000E7323F3507227F4507323B8
:1051F00079510E0DF3507225D96EF4507321DA6E89
:10520000E70EDE6E030EDD6E7A510E0D000E726F2C
:10521000050E736F0D0E7227000E7323F350722765
:10522000F450732379510E0DF3507225D96EF4505A
:105230007321DA6EDF68010E686F7A51792526ECEA
:1052400067F00201098505D0686B7A51792526EC53
:1052500067F000017A2B040E7A6529D702010985CF
:10526000040C70C0D9FF71C0DAFFDF50776F704B4C
:10527000712B70C0D9FF71C0DAFFFF0EDE14736F9F
:10528000FF0EDE14746FFF0EDE14756F000EDE1459
:10529000766F73C064F074C065F075C066F076C058
:1052A00067F0640E686F696B6A6B6B6B50EC56F05D
:1052B00064C073F065C074F066C075F067C076F0C6
:1052C000030E7027000E712370C0D9FF71C0DAFF82
:1052D000DF50726F704B712B646B775143EC70F041
:1052E00000092BE173C064F074C065F075C066F00E
:1052F00076C067F0FCEC5EF0000905E073517411B4
:10530000751176110AE102018151020D830EF32419
:10531000D96E020EF420DA6EDF8E0001725134EC89
:105320006BF000090AE102018151020D830EF324A2
:10533000D96E020EF420DA6EDF8C02018151020D6B
:10534000830EF324D96E020EF420DA6EDFAE65D040
:105350008151020D830EF324D96E020EF420DA6E11
:10536000DFAC5BD0100EB46129D000017351741111
:10537000751176111EE073C064F074C065F075C0DD
:1053800066F076C067F0775130EC69F072C064F077
:1053900077510EEC3EF0010E0001656F2E0E646F2A
:1053A000775199EC6BF0010E646F775190EC3AF005
:1053B00032D0686B775126EC67F02DD00001735125
:1053C00074117511761122E073C064F074C065F039
:1053D00075C066F076C067F07751100F30EC69F059
:1053E00072C064F07751100F0EEC3EF0010E000118
:1053F000656F2E0E646F7751100F99EC6BF0010EF4
:10540000646F7751100F90EC3AF005D0686B7751CC
:10541000100F26EC67F00201098570C070F071C0B2
:1054200071F01200EFC0D9FFF0C0DAFFDECFF3F069
:10543000DDCFF4F0000120EE02F0EF51D926F0515B
:10544000DA22DECFF6F0DDCFF7F0010EF56FF96965
:10545000F3C095F0F4C096F0BDEC44F0F86FF6C0E0
:105460007EF0F7C07FF0010E806F816F826B836BDF
:10547000846BD6EC57F0000908E0F6C067F0F7C07F
:1054800068F046EC48F06751F96FF8AFF9BF92D079
:10549000F56B6CD0F95102E189908CD089808AD06B
:1054A000F95102E1899286D0898284D0F95102E1D2
:1054B000899480D089847ED0F95102E189967AD08E
:1054C000898678D0F95102E1899874D0898872D0A0
:1054D000F95102E1899A6ED0898A6CD0F95102E1C2
:1054E0008D9068D08D8066D0F95102E18D9262D0A6
:1054F0008D8260D0F95102E18C945CD08C845AD0BA
:10550000F95102E18D9456D08D8454D0F95102E1C5
:105510008B9A50D08B8A4ED0F95102E18C9A4AD0A6
:105520008C8A48D0F95102E18C9E44D08C8E42D0B6
:10553000F95102E18C9C3ED08C8C3CD0F95102E1B7
:10554000899E38D0898E36D0F95102E1899C32D0BB
:10555000898C30D0F95102E18A9C2CD08A8C2AD0D7
:10556000F95102E18A9E26D08A8E24D0F85192E029
:10557000010A96E0030A9AE0010A9EE0070AA2E007
:10558000010AA6E0030AAAE0010AAEE00F0AB2E0AF
:10559000010AB6E0030ABAE0010ABEE0070AC2E067
:1055A000010AC6E0030ACAE0010ACEE01F0AD2E0FF
:1055B000010AD6E0F551020DF10EF324D96E020E68
:1055C000F420DA6EDECFF1F0DDCFF2F020EE06F05F
:1055D000EF51D926F051DA22F1C0DEFFF2C0DEFF32
:1055E000DD6A12007FC0C5F180C0C6F181C0C7F17D
:1055F00082C0C8F1A80E0101C96F610ECA6FCB6BE2
:10560000CC6B500ECD6FC30ECE6FCF6BD06B010E37
:10561000DD6F070EDF6F010EE06FE66FE76BD26B99
:10562000080ED16F0C0EDE6F010EE16FE26BE56BC1
:10563000C10ED46F940ED56FC10ED66F030EDC6F02
:10564000340ED36FE86BE96B7DC0EAF17EC0EBF1FD
:10565000E36BE46B800EF76F980EEF6F3A0EF06F0E
:10566000F16BF26B020EF86F0B0EF96F120EFA6F00
:10567000F46BF56BF35123E1F2EC59F00101EC6F9F
:10568000F2EC59F00101ED6FF2EC59F00101EE6F0F
:10569000CC0E0001646FDA0E656F666B0101ED518F
:1056A000B2EC6BF0740E646FD10E656F666B010126
:1056B000EE51B2EC6BF0010E0101F36F0BD0EC5127
:1056C0008DEC70F00101ED518DEC70F00101EE51A7
:1056D0008DEC70F0E4EC6EF0000E0001696F010ECD
:1056E0006A6F7CEC43F0C5C171F0C6C172F0C7C1EE
:1056F00073F0C8C174F036EC42F0420E0001666FE0
:105700003B0E52EC70F03B0ED1EC6EF0836F83BB1E
:10571000FAD7230E666F0C0E52EC70F01E0E0001CD
:10572000666F0D0E52EC70F0AA0E0001666F1F0E30
:1057300052EC70F08F0E0001666F350E52EC70F077
:1057400000016669320E52EC70F0400E0001666F87
:10575000310E52EC70F0010E0001696F6A6F000E9D
:105760007CEC43F093866186F19E0001846B05D04A
:1057700081A602D0939603D0842B84AFF9D761968B
:10578000F18E6669230E52EC70F0420ED1EC6EF091
:105790000101F66F1200EFC0D9FFF0C0DAFFDECFD3
:1057A000F3F0DDCFF4F0010E0001F56FF769F3C0FF
:1057B00095F0F4C096F0BDEC44F0F66FF6BF80D0E3
:1057C0005AD0000E80B0010EF76F79D0000E80B273
:1057D000010EF76F74D0000E80B4010EF76F6FD01A
:1057E000000E80B6010EF76F6AD0000E80B8010E71
:1057F000F76F65D0000E80BA010EF76F60D0000E13
:1058000084B0010EF76F5BD0000E84B2010EF76F0B
:1058100056D0000E83B4010EF76F51D0000E84B441
:10582000010EF76F4CD0000E82BA010EF76F47D011
:10583000000E83BA010EF76F42D0000E83BE010E38
:10584000F76F3DD0000E83BC010EF76F38D0000E0D
:1058500080BE010EF76F33D0000E80BC010EF76FD3
:105860002ED0000E81BC010EF76F29D0000E81BE34
:10587000010EF76F24D0F651A4E0010AA7E0030A55
:10588000AAE0010AADE0070AB0E0010AB3E0030AAA
:10589000B6E0010AB9E00F0ABCE0010ABFE0030A62
:1058A000C2E0010AC5E0070AC8E0010ACBE0030A2A
:1058B000CEE0010AD1E01F0AD4E0010AD7E0F56B7F
:1058C000F55118E0F551020DF10EF324D96E020ED8
:1058D000F420DA6EDECFF1F0DDCFF2F020EE06F04C
:1058E000EF51D926F051DA22F1C0DEFFF2C0DEFF1F
:1058F000DD6A1200280E776F080E786FF751796F06
:105900007A6B79BF7A077C6B0A0E7B6F95EC4FF050
:10591000280EF16F080EF26F20EE06F0EF51D92637
:10592000F051DA22F1C0DEFFF2C0DEFF200EDF6EA2
:10593000200C9651986F9751996F9A6B9B6BE80E5C
:105940009803F3CF9CF0F4CF9DF09E6B9F6B99036F
:10595000F3509D27F4509E23000E9F23030E9803BF
:10596000F3509D27F4509E23000E9F23E80E9A03C8
:10597000F3509E27F4509F23030E9903F3509E2764
:10598000F4509F23000E9803F3509E27F4509F235A
:10599000E80E9B03F3509F27030E9A03F3509F27B3
:1059A000000E9903F3509F27000E9803F3509F2792
:1059B0009CC0A6F29DC0A7F29EC0A8F29FC0A9F20B
:1059C0009651971127E10201C1518DEC70F002014F
:1059D00009930001A46B18D0A451020D820EF32488
:1059E000D96E020EF420DA6E020EDE180BE1A4511D
:1059F000020D820EF324D96E020EF420DA6EDF68F7
:105A0000020181070001A42B020181510001A45D64
:105A1000E3E312000201098308A11200A95106E183
:105A2000A629FF0EA7590F0EA85919E3A6C264F0C4
:105A3000A7C265F0A8C266F0A9C267F07D0E00019A
:105A4000686F696B6A6B6B6B45EC59F00C0ED89004
:105A50006437653766376737E82EF9D720D0A6C296
:105A600098F0A7C299F0A8C29AF0A9C29BF00C0EB8
:105A7000D8900001983799379A379B37E82EF8D796
:105A800098C064F099C065F09AC066F09BC067F05A
:105A90007D0E686F696B6A6B6B6B45EC59F064C087
:105AA000A0F065C0A1F066C0A2F067C0A3F0A0C0DE
:105AB00071F0A1C072F0A2C073F0A3C074F0020133
:105AC000C15147EC67F00201C151C9EF55F0010126
:105AD000EE518DEC70F08A96080E666F120E52EC45
:105AE00070F0DDC169F0000E00016A6F7CEC43F0DC
:105AF0000101E891E8B91200EC51C6EC67F0905151
:105B000007E11F0E8D5DAC0E8E59DF0E8F5946E3F7
:105B10000101EC51C6EC67F00D0E05D0D890903322
:105B20008F338E338D33E82EF9D77D0E8D03F3CF6F
:105B3000D8F0F4CFD9F0DA6BDB6B8E03F350D927B2
:105B4000F450DA23000EDB238D03F350D927F450F1
:105B5000DA23000EDB237D0E8F03F350DA27F45097
:105B6000DB23000E8E03F350DA27F450DB23000E04
:105B70008D03F350DA27F450DB237D0E9003F350AE
